:4000000080673030303030307e3030307e3030307e3030307e3030307e3030307e3030307d062b7e7e3030307e3030307e3030307e3030307d03007e7e3030307e303030e7
:4000400030303030303030303030303030303030303030303030303030303030303030307e3030307e303030711062e38770ef62e33841fefb50424e62e33855f80055f909
:4000800000711062e00a70ef62e338627105627505627905627d057c0299500055181c3c1842a0053f188ff8500157c25518003c1812a00b08283f18187509008ff271100f
:4000c00070ef62e000711062e00a70ef62e2007c08148fff50107f30303030303030303030303030303030303030303030303030303030303030303030303030303030303a
:4001000030303030303030303030303030303030303030303030303030303030303030303030303030303030303030303030303030303030303030303030303030303030bf
:4001400030303030303030303030303030303030230021ff2200330031ff3200370635ff36006028660063056500e600e700d600b000b100b200b333b433b588b600b86590
:40018000b900ba10bb33bc33bd00be00ff203121112274300031e5324034203535364061006900600062006733683363006600d100d300d000d200e172e200df5dde00dd64
:4001c00000ff52504d3a200050574d3a200003e8ff00000070ef62000071106200006201ff70ef6203ff620200711062020062030070ef62010062040071106204d06205c2
:400200002e70ef62073a620614711062060062070070ef620500620800711062087f62098070ef620b80620a007110620a00620b0070ef620900620c007110620c00620d93
:400240000070ef620f00620e007110620e00620f0070ef620d00621000711062100062110070ef621300621200711062120062130070ef62110062140071106214006215ce
:400280000070ef621700621600711062160062170070ef62150070ef7f551900551a7f551b807c02a97c01d47f1070ef500067500157507c02c45001675001578d7c02c4f6
:4002c00070ef207f380210084f56fc00d00456fc01182070ef62e30010082839ffa01f4f48fc01a003711054fd18207509001008284f59fd610018207509008fd738fc7fff
:40030000760e3c0e00b00b80017c033b5a4053417e7c033b5a3e533f7e43e1207f41e1df7f4333017f4133fe7f60315b60357f60325b60367f5d365c5d327f4f38035d33a8
:40034000085d32085d36085d305d3654015d325402500049f701a0035001540070fe4133fe18603618603218603318207e5d305d365c5d327f081028b00420187f903c2056
:400380001875dff2748fef303132333435363738394142434445460867676767210fffe7901918210fffe090127f4b9fea5b9fe77f5200a0069004758ff87f905f086767a0
:4003c0006767210f903818210f40404090307f904b0867676767210f900918210f40404090017f082619805119600818210f29102a196008531940218f531960087f0826ee
:4004000019802e19205119600818210f29302a19600853194021af531960087f0826198051196008261af0511a7110600870ef2e194051196008401057ff2e1950511960f3
:400440000840405d08082619c0511960084040402e19505119600840402619c051196008182108a00479bfd3202e1a7f511a7110600870ef187f261a802e1a7f261b805182
:400480001a71106008511b600970ef50fa906350fa905f50039f4c5052905750039f44905f905d905b50039f3a505a904550029f32505a903d50089f16505a903550019f1a
:4004c0000e505a902d50069f06500e9f02502c9efe50089efa500c9ef650039ef2505a90117f80c094d4210310fff74f03ff209ede7f900c78bffc7f08193a7c0101010181
:400500000871105de070ef21073905d006ffe978bffe187f1059009fcd203dfe00b005500080113dfe06d00752fe15fe8006500617fe059e867bffbfe27f4f1052fd59fcae
:400540009fa4203dfa00b005500080113dfa06d00752fa15fa8006500617fa059e5d7bfbbfe27f210308ff7a03009e633dfe00b005502080133dfe09d00952fe7856fe0084
:40058000800617fe0850079e3218787bffbfd77f4f52fd210308ff4a03fc9e333dfa00b005502080133dfa09d00952fa7856fa00800617fa0850079e0218787bfbbfd77fa2
:4005c0004f080850409e0856000156010852003b01d0055000800350ff9de07b01bfef77003d0009bfe51818500c9de37f0010181c1e1f1f001008040201004f38035402f9
:4006000050409dcb56000056010852003d0200b005ffda8003ffdd9da27b01bfee77003d0007bfe438fd500c9da57f7a0d1e0c00b03f3c0d14a0123c0d13a0143c0d01a0ce
:40064000193c0d00a01e802962044043b30f7e550eff62e2007c03197e62e2007c031d550f017e62040041b3f3550c03550de87e7e43e1017f41e1fe7f4323017f4123fe87
:400680007f60217f60227f5d227f4f5d22084123fe71105d210862210070ef5d205d22085200602271105201602170ef4323011838fe7f104f380856030056020056010133
:4006c000560000801a52f70852f8085200085201087c0ac338fc511454015113540052000852010852fb0852fc087c09fd18531718531838fe511713f851181bf7dfc78092
:40070000ab52000852010852fb0852fc087c09fd18531718531838fe511754055118540452000852010852fb0852fc087c09fd38fe1854fc1854fb52f70852f8085200088b
:400740005201087c09fd18540118540038fe3d0200b0203d0300b01b5000130552043180531450801a14c00b3d0000b03f3d0100b03a52fa531752f953185117010154fa5c
:400780005118090054f95205110a520431801980d0095607305606008007560757560600520503073f1777030f02003d0000bf523d0100bf4d52fa531750003f1738f82089
:4007c0007f104f500008501008500008502008500008501c087c0ba638fa52fb0852fc087c0bfd51180851170852fb0852fc08500008501c087c0b7c38f8552d00105000c4
:400800000852fa207c04e6500008501c5c187c03b120207f104f38067101107c06717c06797c03217c04767c06872054015601ff1052017c068420500008500608500008a9
:40084000502d087c0bd838fc500008500a08500008503208520153175000085117089e53500108500008502d089f5638f7560000814c660027000f5d0421012d003d000741
:40088000b05f107c0687201101540150003b01c0045601ff1052017c068420500008500608500008502d087c0bd85000085006087c0bfd38fa500008500a0806172d0e18d2
:4008c00000511808511708520153175000085117089de0500108500008502d089ee338f73c0f01b0d9550f005602005603005604005605005f150e500008080851150850e8
:40090000000850440850aa085020087c0af438fc1854051854041854031854025141123f531751401a3e531870fb6e186e175117050551180d0450000f03000f0200514125
:40094000123f531751401a3e5316500008085116085117085202085203085204085205087c09c418540518540418540318540238fc5205531752045f1117531050000850d1
:400980000008500008502d087c0bd85000085000087c0bfd38fa500008500a0806172d0e18005118085117085110085111089d03500008500008502d089e0638f78eb4388d
:4009c000fa208fff104f380150003df980c0067c0a8e50c03df580c00c104b11044b7c0a8e318020087c0a34186ad0047c0a8e6ad0084b11044b7c0a8e38ff207f104f7ccb
:400a00000a04207f50005313531455121066fc6cfb6b136b1451131bfa51141bf9c009531452fa1c1377fc7a12bfe3511354fa511454f97f51180850005318531453135342
:400a40001256002066fc6cfb6cfa6cf96b126b136b146b1851121bf851131bf751141bf651181bf5c011531852f8141252f71c1352f61c1477fc7b00bfcb511254f851135b
:400a800054f7511454f6511854f51853187f37fcff77fc37fbff0ffb0037faff0ffa0037f9ff0ff9007f531460e8511360e95dea471480a0030213471380a0030214531489
:400ac0005deb7f104f52f960e952fc60e85deb531352fa60e95deb53145dea48fc80a00303fa6cfad00303fc041352fb60e85deb0413207f104f52f560e852fc531360e93c
:400b00005deb54f552f67c0aa654f6511405f552fb60e95deb05f552f84c137c0aa654f85f121452fb7c0aa6041251140df60ff50052fa7c0aa605f651140df552f960e821
:400b40005deb05f552f7531352fc7c0aa6021254f751140df60ff50052fb7c0aa605f651140df552fa60e85deb05f5207f62d000104f52fb60d552f960d48003104f52fc2d
:400b80005317531652fb531852fa53153df800a0097bf83e153f168ff4207f62d000104f52fb60d58003104f52fc5317531652fb531852fa80083f167bf81ff7003df80026
:400bc000bff53df700bff0207f62d000104f52fb60d552f960d48003104f52fc5317531652fb531852fa53153e153f163900bff9207f62d000104f52fb60d48003104f553d
:400c0000170055180052fc53163e163900a00876170e18008ff4207f30303030303030303030303030303030303030303030303030303030303030303030303030303030ef
:400c40003030303030303030303030303030303030303030303030303030303030303030303030303030303030303030303030303030303030303030303030303030303074
:400c80003030303030303030303030303030303030303030303030303030303030303030303030303030303030303030303030303030303030303030303030303030303034
:400cc00030303030303030303030303030303030303030303030303030303030303030303030303030303030303030303030303030303030303030303030303030303030f4
:400d000030303030303030303030303030303030303030303030303030303030303030303030303030303030303030303030303030303030303030303030303030303030b3
:020000040010ea
:020000040020da
:0200000082fd7f
:00000001ff
