:4000000080673030303030307e3030307e3030307e3030307e3030307e3030307e3030307e3030307e3030307e3030307e3030307e3030307e3030307e3030307e303030f5
:4000400030303030303030303030303030303030303030303030303030303030303030307e3030307d075a7e711062e38770ef62e33841fefb502a4e62e33855f80055f9d3
:4000800000711062e00270ef62e338627105627505627905627d057c02ca50005515193c152aa0053f158ff8500157f65515003c150fa00b08283f15187509008ff27110e2
:4000c00070ef62e000711062e00070ef62e2007c04d08fff50107f30303030303030303030303030303030303030303030303030303030303030303030303030303030308c
:4001000030303030303030303030303030303030303030303030303030303030303030303030303030303030303030303030303030303030303030303030303030303030bf
:40014000303030303030303030303030303030303030303030303030303030303030303030303030303030303030303030303030303030303030303030303030303030307f
:400180003030303030303030303030303030303030303030303030303030303030303030809f814082a083336028660063056500e600e700d600b000b100b200b333b43349
:4001c000b500b600b855b900ba10bb33bc33bd00be00ff61006900600162086733683363006600d100d300d000d200e1ffe200dfffde02dd00ff4974207475726e73204ff0
:400200006e0000000070ef62000071106200006201ff70ef6203ff620200711062020062030070ef62010062040071106204006205fe70ef6207fe620600711062060062ec
:40024000070070ef620500620800711062087f62098070ef620b80620a007110620a00620b0070ef620900620c007110620c00620d0070ef620f00620e007110620e0062b7
:400280000f0070ef620d00621000711062100062110070ef621300621200711062120062130070ef621100621400711062140062150070ef62170062160071106216006276
:4002c000170070ef62150070ef7f55160055177f5518807c02da7c02057f1070ef500067500157a07c02f5500167500157d37c02f570ef207f380210084f56fc00d00456f4
:40030000fc01182070ef62e30010082839ffa01f4f48fc01a003711054fd18207509001008284f59fd610018207509008fd738fc7f081028b00420187f903c201875dff2e4
:40034000748fef303132333435363738394142434445460867676767210fffe7901918210fffe090127f4b9fea5b9fe77f5200a0069004758ff87f905f0867676767210f40
:40038000903818210f40404090307f904b0867676767210f900918210f40404090017f082616805116600818210f29102a166008531640218f531660087f082616802e1661
:4003c000205116600818210f29302a16600853164021af531660087f08261680511660082617f051177110600870ef2e164051166008401057ff2e16505116600840405d53
:4004000008082616c0511660084040402e16505116600840402616c051166008182108a00479bfd3202e177f51177110600870ef187f2617802e177f2618805117711060d0
:40044000085118600970ef50fa906350fa905f50039f4c5052905750039f44905f905d905b50039f3a505a904550029f32505a903d50089f16505a903550019f0e505a9010
:400480002d50069f06500e9f02502c9efe50089efa500c9ef650039ef2505a90117f80c094d4210310fff74f03ff209ede7f900c78bffc7f08193a7c010101010871105d23
:4004c000e070ef21073905d006ffe978bffe187f104f3827107c0432205000085000085a140614165115085114087c08505001085a14061416511508511408920a38f9434e
:40050000e040710180ed3c0c00a00a5d8001016080550c005d80218067676767676767210154135d80211f54145d80212067676767672107531554155000085010085a1405
:400540000614025115085114085213531450000851140890a438fa5a1506150251155401800677010f0000520153143e14bff45201531452005315511401015401511509db
:4005800000540050203f1450000850100852000852010852145314500008511408905a38fa800677010f0000520153143e14bff4520153145200531551140101540151159f
:4005c0000900540050203f145000085010085200085201085215531450000851140890195000085a14061402511508511408911738f78f1338d9208fff104f38085603003d
:40060000560200560101560000801a52f70852f8085200085201087c07b438fc511154015110540052000852010852fb0852fc087c077d18531418531538fe511413f85195
:40064000151bf7dfc780ab52000852010852fb0852fc087c077d18531418531538fe511454055115540452000852010852fb0852fc087c077d38fe1854fc1854fb52f708bb
:4006800052f8085200085201087c077d18540118540038fe3d0200b0203d0300b01b5000130552043180531150801a11c00b3d0000b03f3d0100b03a52fa531452f95315b7
:4006c0005114010154fa5115090054f95205110a520431801980d0095607305606008007560757560600520503073f1477030f02003d0000bf523d0100bf4d52fa53145044
:40070000003f1438f8207f104f5000085010085000085020085000085019087c081e38fa52fb0852fc087c087551150851140852fb0852fc085000085019087c07f438f871
:40074000552a001050000852fa207c04a250000850195c187c036d20207f085d043901b01b3c0d00b0113c0e03b00c550c01550e00550d008006760e0e0d00187e104f7ce6
:400780000784207f500053105311550f1066fc6cfb6b106b1151101bfa51111bf9c009531152fa1c1077fc7a0fbfe3511054fa511154f97f104f52f960e952fc60e85debe7
:4007c000531052fa60e95deb53115dea48fc80a00303fa6cfad00303fc041052fb60e85deb0410207f62d000104f52fb60d552f960d48003104f52fc5314531352fb53158a
:4008000052fa53123df800a0097bf83e123f138ff4207f62d000104f52fb60d58003104f52fc5314531352fb531552fa80083f137bf81ff7003df800bff53df700bff02092
:400840007f62d000104f52fb60d552f960d48003104f52fc5314531352fb531552fa53123e123f133900bff9207f62d000104f52fb60d48003104f55140055150052fc536a
:40088000133e133900a00876140e15008ff4207f30303030303030303030303030303030303030303030303030303030303030303030303030303030303030303030303024
:4008c00030303030303030303030303030303030303030303030303030303030303030303030303030303030303030303030303030303030303030303030303030303030f8
:4009000030303030303030303030303030303030303030303030303030303030303030303030303030303030303030303030303030303030303030303030303030303030b7
:400940003030303030303030303030303030303030303030303030303030303030303030303030303030303030303030303030303030303030303030303030303030303077
:400980003030303030303030303030303030303030303030303030303030303030303030303030303030303030303030303030303030303030303030303030303030303037
:020000040010ea
:020000040020da
:02000000e426f4
:00000001ff
