:4000000080673030303030307e3030307e3030307e3030307e3030307e3030307e3030307d05fd7e7e3030307d02ee7e7e3030307e3030307e3030307e3030307e30303029
:4000400030303030303030303030303030303030303030303030303030303030303030307e3030307e303030711062e38770ef62e33841fefb50094e62e33855f80055f942
:4000800000711062e00a70ef62e338627105627505627905627d057c028750005505093c0509a0053f058ff8500157c25505003c0500a00b08283f05187509008ff27110f1
:4000c00070ef62e000711062e00a70ef62e2007c07568fff50107f3030303030303030303030303030303030303030303030303030303030303030303030303030303030f9
:4001000030303030303030303030303030303030303030303030303030303030303030303030303030303030303030303030303030303030303030303030303030303030bf
:4001400030303030303030303030303030303030230021ff2200270025e826142b0029032a006028660063056500e600e700d600b000b100b200b337b433b588b600b855e9
:40018000b900ba10bb33bc33bd00be00ff2071211122442411251a26402831293a2a4561006900600062006733683363006600d100d300d000d200e172e200df5dde00dd3b
:4001c00000ff70ef62000071106200006201ff70ef6203ff620200711062020062030070ef62010062040071106204306205ce70ef6207ca62063071106206006207007029
:40020000ef620500620800711062087f62098070ef620b80620a007110620a00620b0070ef620900620c007110620c00620d0070ef620f00620e007110620e00620f0070ef
:40024000ef620d00621000711062100062110070ef621300621200711062120062130070ef621100621400711062140062150070ef621700621600711062160062170070ae
:40028000ef62150070ef7f55060055077f5508807c02977c01c27f1070ef500067500157507c02b25001675001578d7c02b270ef207f380210084f56fc00d00456fc011879
:4002c0002070ef62e30010082839ffa01f4f48fc01a003711054fd18207509001008284f59fd610018207509008fd738fc7f7e43e1047f41e1fb7f4327017f4127fe7f603f
:40030000255b60297f60265b602a7f5d2a5c5d267f4f5d2a085d26084127fe71105d250862250070ef5d285d2a085d245d26085200602a5201602671105202602570ef43d5
:400340002701182038fd7f081028b00420187f903c201875dff2748fef303132333435363738394142434445460867676767210fffe7901918210fffe090127f4b9fea5b06
:400380009fe77f5200a0069004758ff87f905f0867676767210f903818210f40404090307f904b0867676767210f900918210f40404090017f082606805106600818210f44
:4003c00029102a066008530640218f530660087f082606802e06205106600818210f29302a06600853064021af530660087f08260680510660082607f051077110600870b9
:40040000ef2e064051066008401057ff2e06505106600840405d08082606c0510660084040402e06505106600840402606c051066008182108a00479bfd3202e077f5107cf
:400440007110600870ef187f2607802e077f2608805107711060085108600970ef50fa906350fa905f50039f4c5052905750039f44905f905d905b50039f3a505a904550f7
:40048000029f32505a903d50089f16505a903550019f0e505a902d50069f06500e9f02502c9efe50089efa500c9ef650039ef2505a90117f80c094d4210310fff74f03ff4f
:4004c000209ede7f900c78bffc7f08193a7c010101010871105de070ef21073905d006ffe978bffe187f1059009fcd203dfe00b005500080113dfe06d00752fe15fe8006dc
:40050000500617fe059e867bffbfe27f4f1052fd59fc9fa4203dfa00b005500080113dfa06d00752fa15fa8006500617fa059e5d7bfbbfe27f210308ff7a03009e633dfe84
:4005400000b005502080133dfe09d00952fe7856fe00800617fe0850079e3218787bffbfd77f4f52fd210308ff4a03fc9e333dfa00b005502080133dfa09d00952fa78569c
:40058000fa00800617fa0850079e0218787bfbbfd77f4f080850409e0856000156010852003b01d0055000800350ff9de07b01bfef77003d0009bfe51818500c9de37f002d
:4005c00010181c1e1f1f001008040201004f3803540250409dcb56000056010852003d0200b005ffda8003ffdd9da27b01bfee77003d0007bfe438fd500c9da57f7e43e177
:40060000017f41e1fe7f4323017f4123fe7f60217f60227f5d227f4f5d22084123fe71105d210862210070ef5d205d22085200602271105201602170ef4323011838fe7ff4
:40064000104f3808560300560200560101560000801a52f70852f8085200085201087c088a38fc510254015101540052000852010852fb0852fc087c0853185304185305e4
:4006800038fe510413f851051bf7dfc780b352000852010852fb0852fc087c085318530418530538fe510454055105540452000852010852fb0852fc087c085338fe1853e3
:4006c00004185305510454fc510554fb52f70852f8085200085201087c085318540118540038fe3d0200b0203d0300b01b5000130552043180530250801a02c00b3d00002c
:40070000b03f3d0100b03a52fa530452f953055104010154fa5105090054f95205110a520431801980d0095607305606008007560757560600520503073f0477030f020071
:400740003d0000bf4a3d0100bf4552fa530450003f0438f8207f104f381243e040107c06067c02f77c0448500057007c04b87c06142054015601ff1052017c061120500065
:4007800008500a085a04060402510508510408520153045000085104089ea538fa5a040604021051050851045c187c038320560000809a41dabf660027000f5d0421015357
:4007c000052d003d0007b0855000085010085000085020085a040604025105085104087c08c638fa10500057007c04b8205a040604021051050851045c187c03837c0614d5
:40080000201101540150003b01c0045601ff1052017c0611500057007c04b820500008500a085a04060402510508510408520153045000085104089e0738fa5a0406040217
:400840001051050851045c187c0383208f6638ee208fff104f7c085a207f50005301530255001066fc6cfb6b016b0251011bfa51021bf9c009530252fa1c0177fc7a00bf79
:40088000e3510154fa510254f97f104f52f960e952fc60e85deb530152fa60e95deb53025dea48fc80a00303fa6cfad00303fc040152fb60e85deb0401207f62d000104f45
:4008c00052fb60d58003104f52fc5304530352fb530552fa80083f037bf81ff7003df800bff53df700bff0207f30303030303030303030303030303030303030303030309a
:4009000030303030303030303030303030303030303030303030303030303030303030303030303030303030303030303030303030303030303030303030303030303030b7
:400940003030303030303030303030303030303030303030303030303030303030303030303030303030303030303030303030303030303030303030303030303030303077
:400980003030303030303030303030303030303030303030303030303030303030303030303030303030303030303030303030303030303030303030303030303030303037
:4009c00030303030303030303030303030303030303030303030303030303030303030303030303030303030303030303030303030303030303030303030303030303030f7
:020000040010ea
:020000040020da
:020000000455a5
:00000001ff
