:4000000080673030303030307e3030307e3030307e3030307e3030307e3030307e3030307e3030307e3030307d03027e7d03037e7e3030307e3030307e3030307e30303010
:4000400030303030303030303030303030303030303030303030303030303030303030307e3030307e303030711062e38770ef62e33841fefb50594e62e33855f80055f9f2
:4000800000711062e00270ef62e338627105627505627905627d057c02f850005506093c0638a0053f068ff8500157975506003c0600a00b08283f06187509008ff271107e
:4000c00070ef62e000711062e00070ef62e2007c06788fff50107f3030303030303030303030303030303030303030303030303030303030303030303030303030303030e2
:4001000030303030303030303030303030303030303030303030303030303030303030303030303030303030303030303030303030303030303030303030303030303030bf
:40014000303030303030303030303030303030304c6574277320626c6f77207570207468652050726f662e206d696e64210a0d0054686973206973206f757220776f6e64bf
:40018000657266756c204553453336362050726f6a6563740a0d0070ef62602862660062630562650062e60062e70062d60062b00462b10062b20062b33362b43362b50027
:4001c00062b62062b85562b90062ba1062bb3362bc3362bd0062be00622f00622d00622e00622b00622900622a00711062610062690062600062620062673362683362638a
:400200000062660062d10062d30062d00062d20062e10062e20062df9b62de0062dd00622c05622dd1622e4062280d622901622a4770ef70ef62000071106200006201ff28
:4002400070ef6203ff620200711062020062030070ef62010062040071106204016205ff70ef6207fe620600711062060062070070ef620500620800711062088062097f92
:4002800070ef620b5f620aa07110620a00620b0070ef620900620c007110620c00620d0070ef620f00620e007110620e00620f0070ef620d006210007110621000621100cf
:4002c00070ef621300621200711062120062130070ef621100621400711062140062150070ef621700621600711062160062170070ef62150070ef7f7c02fc7f7c019770a3
:40030000ef7f7e081058085d2f082108b0041880401821e0a0122c07492e002120a032412ffe432f01802a5d2e470701b023390db0092e070156380080173920c0133c0886
:400340001fc0095638002e071080065438755a0820187e43e10443e1087f41e1fb41e1f77f71102101a00743281070ef7f4128ef70ef7f2901602b602f910e7f412bfe41b5
:400380002ffe7f60297f5d2b7f5d2e7f5d2f7f210171103901a0064128ef800443281070ef7f082101a00643e108800441e1f7182102a00643e104800441e1fb7f30313260
:4003c000333435363738394142434445460867676767210fffe7900f18210fffe090087f4b9fea5b9fe77f492b10affc60297f492f08affc5d2e7f5d2f082108b0041880ae
:400400000b5d2e4b1821a0b0034b7f50007f5d2f21e8082108b0071829014b80071821e04b5d2e7f5200a0069fbd758ff87f4f52fba0137bfb59fd5200492b10affc6029c3
:400440004f77fd8feb7f4f3dfa00b0063dfb00a01d1052fc59fd28492b10affc60292007fd010ffc0017fb011ffa008fdb7f081028a00b9f72201875dff5748ff238fe7f8f
:40048000500d9f63500a9f5f7f5538005508002607005558007f510721017f510721f026070f7f51087f503802585c5200b0041080333920b01175765852003c581fbff3b3
:4004c00010560000801f107576583c581faff35200a0123920bff156000076583c581fb00455581f20103d0000b0062057005b7f2050007f503802585c50007f104f3808dc
:40050000560300560200560101560000801a52f70852f8085200085201087c072138fc510254015101540052000852010852fb0852fc087c06ea18530518530638fe51050b
:4005400013f851061bf7dfc780ab52000852010852fb0852fc087c06ea18530518530638fe510554055106540452000852010852fb0852fc087c06ea38fe1854fc1854fb24
:4005800052f70852f8085200085201087c06ea18540118540038fe3d0200b0203d0300b01b5000130552043180530250801a02c00b3d0000b03f3d0100b03a52fa53055289
:4005c000f953065105010154fa5106090054f95205110a520431801980d0095607305606008007560757560600520503073f0577030f02003d0000bf523d0100bf4d52fad7
:400600000101530552f909005306510554fa510654f9500d3f0552fa0101530552f909005306510554fa510654f9500a3f0552fa530550003f0538f8207f104f5000085083
:4006400010085000085020085000085009087c077d38fa52fb0852fc087c07ab51060851050852fb0852fc085000085009087c075338f8551a00207f104f3805560200564f
:4006800001001050007c0373500c7c03e72090435600008038660027000f5d0421012d003d0007b02877020f0100500008500a08500008501a085201085202089e3e38faea
:4006c00010500008501a5c187c0424208fc838fb208fff1050010850705c187c046e50010850505c187c046e207f104f7c06f1207f50005301530255001066fc6cfb6b012f
:400700006b0251011bfa51021bf9c009530252fa1c0177fc7a00bfe3510154fa510254f97f104f5000530253015500106ff96ffad00952fc040252fb0c0166fc6cfb7a0051
:40074000bfeb207f62d000104f52fb60d552f960d48003104f52fc5305530452fb530652fa53033df800a0097bf83e033f048ff4207f62d000104f52fb60d58003104f5239
:40078000fc5305530452fb530652fa80083f047bf81ff7003df800bff53df700bff0207f62d000104f52fb60d48003104f55050055060052fc53043e043900a00876050ee3
:4007c00006008ff4207f30303030303030303030303030303030303030303030303030303030303030303030303030303030303030303030303030303030303030303030f1
:4008000030303030303030303030303030303030303030303030303030303030303030303030303030303030303030303030303030303030303030303030303030303030b8
:400840003030303030303030303030303030303030303030303030303030303030303030303030303030303030303030303030303030303030303030303030303030303078
:400880003030303030303030303030303030303030303030303030303030303030303030303030303030303030303030303030303030303030303030303030303030303038
:4008c00030303030303030303030303030303030303030303030303030303030303030303030303030303030303030303030303030303030303030303030303030303030f8
:020000040010ea
:020000040020da
:02000000e4d149
:00000001ff
