:4000000080673030303030307e3030307e3030307e3030307e3030307e3030307e3030307d06117e7e3030307d06177e7d06147e7e3030307d0a557e7e3030307e30303094
:4000400030303030303030303030303030303030303030303030303030303030303030307e3030307e303030711062e38770ef62e33841fefb502c4e62e33855f80055f91f
:4000800000711062e00270ef62e338627105627505627905627d057c03a15000550d193c0d2ca0053f0d8ff8500257cd550d003c0d07a00b08283f0d187509008ff2711068
:4000c00070ef62e000711062e00070ef62e2007c07bd8fff50107f30303030303030303030303030303030303030303030303030303030303030303030303030303030309c
:4001000030303030303030303030303030303030303030303030303030303030303030303030303030303030303030303030303030303030303030303030303030303030bf
:40014000303030303030303030303030303030303030303030303030303030303030303030303030303030303030303030303030303030303030303030303030303030307f
:4001800030303030303030303030303030303030303030303030303030303030303030300002da010202d8000002d6020202d8010002da010102d4000202d80253686f72a1
:4001c0007420507265737365640052656c6561736564004c6f6e6720507265737365640048656c6c6f3f00909091a0926193f0989099a09a609bf02300210022002f002d48
:40020000002e002700250026002b0029002a00809481888200832484928540869f8720889489888a008b248c928d408e9f8f2071fd72a373207000751d7621772074017952
:40024000fd7aa37b2078007d1d7e217f207c013300318032e83704350c36036028660063156500e650e700d600b000b100b200b333b433b500b600b855b900ba10bb33bc06
:4002800033bd00be00ff2021214522402c212d652e40240125152640282129352a4030003117324034203537364061006900600062bc6733683363006600d100d300d0008b
:4002c000d200e127e200df19de02dd00ff01a001a801b0000a4e0a480a410a4270ef62000071106200006201ff70ef6203ff620200711062020062030070ef6201006204b3
:400300000071106204006205fe70ef6207fe620600711062060062070070ef620500620800711062087f62098070ef620b80620a007110620a00620b0070ef620900620c22
:40034000007110620c00620d0070ef620f00620e007110620e00620f0070ef620d00621000711062100062110070ef621300621200711062120062130070ef6211006214dd
:4003800000711062140062150070ef621700621600711062160062170070ef62150070ef7f550e00550f7f5510807c03b17c02dc7f1070ef500067500157e77c03cc5001d4
:4003c00067500257867c03cc70ef207f380210084f56fc00d00456fc01182070ef62e30010082839ffa01f4f48fc01a003711054fd18207509001008284f59fd61001820b4
:400400007509008fd738fc7f43e1207f41e1df7f4333017f4133fe7f60315b60357f60325b60367f5d365c5d327f4f38035d33085d32085d36085d305d3654015d3254024e
:40044000500049f701a0035001540070fe4133fe18603618603218603318207e5d305d365c5d327f081028b00420187f903c201875dff2748fef303132333435363738398c
:400480004142434445460867676767210fffe7901918210fffe090127f4b9fea5b9fe77f5200a0069004758ff87f905f0867676767210f903818210f40404090307f904b14
:4004c0000867676767210f900918210f40404090017f08260e80510e600818210f29102a0e6008530e40218f530e60087f08260e802e0e20510e600818210f29302a0e6022
:4005000008530e4021af530e60087f08260e80510e6008260ff0510f7110600870ef2e0e40510e6008401057ff2e0e50510e600840405d0808260ec0510e60084040402ed8
:400540000e50510e60084040260ec0510e6008182108a00479bfd3202e0f7f510f7110600870ef187f260f802e0f7f261080510f711060085110600970ef50fa906350faf0
:40058000905f50039f4c5052905750039f44905f905d905b50039f3a505a904550029f32505a903d50089f16505a903550019f0e505a902d50069f06500e9f02502c9efe50
:4005c00050089efa500c9ef650039ef2505a90117f80c094d4210310fff74f03ff209ede7f900c78bffc7f08193a7c010101010871105de070ef21073905d006ffe978bf87
:40060000fe187ffffefcf8f0e0c00204081020408076117e76127e4123fe412ffe439220439a20439310439b1071014070fe085d205d227873d00376115314511153135d10
:400640002c5d2e7873d00376125316511253156221ff622dff432301432f015511005512004193ef419bef4192df419adf5117210fff97082213a00b18110153135514ff8a
:4006800080021868136e1468136e145117210fff79082215a00b18110153155516ff80021868156e1668156e16182e17104718ffa0237a18b01f4127fe4123fe412ffe43ac
:4006c0009220439a20439310439b1041e1fb41e1fe41e1f77e104f3802560100560000800677010f00005f0c06650c060c003e0c530d3e0c530c5201530a5200530b650a3a
:400700006b0b650a6b0b510a020c530c510b0a0d10580c2820530c550d0052fc530a550b0050003a0bb007510c3a0aa00b3c0d00bfb03c0c02bfab5f0c06650c060c003e65
:400740000c530d3e0c530c5201530a5200530b650a6b0b650a6b0b510a020c530c510b0a0d530d060c010e0d00510d10580c0828530d18750900285c510d7c0b74205f0c11
:4007800006650c060c003e0c530d3e0c530c5201530a5200530b650a6b0b650a6b0b510a020c530c510b0a0d530d060c030e0d00510d10580c2820530638fe207f104f3889
:4007c000135600005612007101107c04087c05652050010850e0085a0c060c01510d08510c087c0b2c5001085a0c060c01510d08510c0891f938f9925580df660027000f56
:400800005d0421012d003d000fb0403d12c8d0057712809b3d12c8b09677125001089eb538ff50010850d3085a0c060c01510d08510c087c0b2c5001085a0c060c01510dc8
:4008400008510c0891a838f980653d1200b003805b3d12c8c02950010850ca085a0c060c01510d08510c087c0b2c5001085a0c060c01510d08510c08917438f9802e50009c
:40088000089e5238ff50010850bc085a0c060c01510d08510c087c0b2c5001085a0c060c01510d08510c08914538f9561200500008500a085a0c060c01510d08510c08514a
:4008c0002a08512b0890195000085a0c060c01510d08510c08911738f78f2138ed208fff104f3808560300560200560101560000801a52f70852f8085200085201087c0a2d
:400900009438fc510954015108540052000852010852fb0852fc087c0a5d18530c18530d38fe510c13f8510d1bf7dfc780ab52000852010852fb0852fc087c0a5d18530cc8
:4009400018530d38fe510c5405510d540452000852010852fb0852fc087c0a5d38fe1854fc1854fb52f70852f8085200085201087c0a5d18540118540038fe3d0200b020bc
:400980003d0300b01b5000130552043180530950801a09c00b3d0000b03f3d0100b03a52fa530c52f9530d510c010154fa510d090054f95205110a520431801980d0095657
:4009c00007305606008007560757560600520503073f0c77030f02003d0000bf523d0100bf4d52fa530c50003f0c38f8207f104f5000085010085000085020085000085052
:400a000019087c0afe38fa52fb0852fc087c0b59510d08510c0852fb0852fc085000085019087c0ad438f8552a001050000852fa207c05d550000850195c187c04a020204d
:400a40007f7f107c0410207f107c0414207f552b00552a007f08762b0e2a00187e104f7c0a64207f50005308530955071066fc6cfb6b086b0951081bfa51091bf9c00953fe
:400a80000952fa1c0877fc7a07bfe3510854fa510954f97f104f52f960e952fc60e85deb530852fa60e95deb53095dea48fc80a00303fa6cfad00303fc040852fb60e85d14
:400ac000eb0408207f62d000104f52fb60d552f960d48003104f52fc530c530b52fb530d52fa530a3df800a0097bf83e0a3f0b8ff4207f62d000104f52fb60d58003104f91
:400b000052fc530c530b52fb530d52fa80083f0b7bf81ff7003df800bff53df700bff0207f62d000104f52fb60d58003104f52fc530c530b52fb530d1052f959fa28203f09
:400b40000b3900a00877fa0ff9008fed207f62d000104f52fb60d48003104f550c00550d0052fc530b3e0b3900a008760c0e0d008ff4207f53092808510975090028087f96
:400b80003030303030303030303030303030303030303030303030303030303030303030303030303030303030303030303030303030303030303030303030303030303035
:400bc00030303030303030303030303030303030303030303030303030303030303030303030303030303030303030303030303030303030303030303030303030303030f5
:400c000030303030303030303030303030303030303030303030303030303030303030303030303030303030303030303030303030303030303030303030303030303030b4
:400c40003030303030303030303030303030303030303030303030303030303030303030303030303030303030303030303030303030303030303030303030303030303074
:020000040010ea
:020000040020da
:0200000026b820
:00000001ff
