:4000000080673030303030307e3030307e3030307e3030307e3030307d08487e7e3030307e3030307e3030307e3030307e3030307e3030307e3030307e3030307e303030b8
:4000400030303030303030303030303030303030303030303030303030303030303030307e3030307e303030711062e38770ef62e33841fefb501e4e62e33855f80055f92d
:4000800000711062e00a70ef62e338627105627505627905627d057c0395500055090d3c091ea0053f098ff8500257cd5509003c0903a00b08283f09187509008ff27110a2
:4000c00070ef62e000711062e00a70ef62e2007c06da8fff50107f303030303030303030303030303030303030303030303030303030303030303030303030303030303076
:4001000030303030303030303030303030303030303030303030303030303030303030303030303030303030303030303030303030303030303030303030303030303030bf
:4001400030303030303030303030303030303030808182828384858586878888898a8a8b8c8d8d8e8f8f9091919292939494959596969797989899999a9a9b9b9b9c9c9c82
:400180009d9d9d9d9e9e9e9e9e9f9f9f9f9f9f9f9f9f9f9f9f9f9f9f9e9e9e9e9e9d9d9d9d9c9c9c9b9b9b9a9a9999989897979696959594949392929191908f8f8e8d8dc4
:4001c0008c8b8a8a89888887868585848382828180a1a2a2a3a4a5a5a6a7a8a8a9aaaaabacadadaeafafb0b1b1b2b2b3b4b4b5b5b6b6b7b7b8b8b9b9bababbbbbbbcbcbcbb
:40020000bdbdbdbdbebebebebebfbfbfbfbfbfbfbfbfbfbfbfbfbfbfbebebebebebdbdbdbdbcbcbcbbbbbbbabab9b9b8b8b7b7b6b6b5b5b4b4b3b2b2b1b1b0afafaeadad43
:40024000acabaaaaa9a8a8a7a6a5a5a4a3a2a2a120526174653a004761696e3a0050686173653a004c61623744205465737400809f8140822083339030910092a093336022
:4002800028660063076500e600e700d600b000b100b200b333b433b500b600b855b900ba10bb33bc33bd00be00ff61006900600162086733683363006600d100d300d00005
:4002c000d200e153e201df4fde01dd00ff00013070ef62000071106200006201ff70ef6203ff620200711062020062030070ef62010062040071106204006205ff70ef624e
:4003000007ff620600711062060062070070ef620500620800711062087f62098070ef620b80620a007110620a00620b0070ef620900620c007110620c00620d0070ef620f
:400340000f00620e007110620e00620f0070ef620d00621000711062100062110070ef621300621200711062120062130070ef621100621400711062140062150070ef62cd
:400380001700621600711062160062170070ef62150070ef7f550a00550b7f550c807c03a57c02d07f1070ef5000675002576f7c03c0500167500257aa7c03c070ef207fb3
:4003c000380210084f56fc00d00456fc01182070ef62e30010082839ffa01f4f48fc01a003711054fd18207509001008284f59fd610018207509008fd738fc7f2103104f79
:40040000085d9321fc2b00609318207f4193fc7f2103104f085d8321fc2b00608318207f4183fc7f081028b00420187f903c201875dff2748fef3031323334353637383903
:400440004142434445460867676767210fffe7901918210fffe090127f4b9fea5b9fe77f5200a0069004758ff87f905f0867676767210f903818210f40404090307f904b54
:400480000867676767210f900918210f40404090017f08260a80510a600818210f29102a0a6008530a40218f530a60087f08260a802e0a20510a600818210f29302a0a6086
:4004c00008530a4021af530a60087f08260a80510a6008260bf0510b7110600870ef2e0a40510a6008401057ff2e0a50510a600840405d0808260ac0510a60084040402e49
:400500000a50510a60084040260ac0510a6008182108a00479bfd3202e0b7f510b7110600870ef187f260b802e0b7f260c80510b71106008510c600970ef50fa906350fa5c
:40054000905f50039f4c5052905750039f44905f905d905b50039f3a505a904550029f32505a903d50089f16505a903550019f0e505a902d50069f06500e9f02502c9efe90
:4005800050089efa500c9ef650039ef2505a90117f80c094d4210310fff74f03ff209ede7f900c78bffc7f08193a7c010101010871105de070ef21073905d006ffe978bfc7
:4005c000fe187f1059009fcd203dfe00b005500080113dfe06d00752fe15fe8006500617fe059e867bffbfe27f4f1052fd59fc9fa4203dfa00b005500080113dfa06d0072a
:4006000052fa15fa8006500617fa059e5d7bfbbfe27f210308ff7a03009e633dfe00b005502080133dfe09d00952fe7856fe00800617fe0850079e3218787bffbfd77f4fcf
:4006400052fd210308ff4a03fc9e333dfa00b005502080133dfa09d00952fa7856fa00800617fa0850079e0218787bfbbfd77f4f080850409e0856000156010852003b0140
:40068000d0055000800350ff9de07b01bfef77003d0009bfe51818500c9de37f0010181c1e1f1f001008040201004f3803540250409dcb56000056010852003d0200b0051e
:4006c000ffda8003ffdd9da27b01bfee77003d0007bfe438fd500c9da57f104f3824107c0525205002085064085a080608025109085108087c0aa95000085a080608025184
:400700000908510808928038f91050037c041050037c03fc7c04207c040c2043e080710151026090811c5a0906090251095401500208505d085200085201087c0aa938fcb8
:400740005200085201087c0ad651080301540151090b005400500008500a085200085201085f0800500008510808910d38f85000085a0806080251090851080892095a0915
:40078000060913510954015002085057085200085201087c0aa938f95200085201087c0ad651080301540151090b005400500008500a085200085201085f0802500008514d
:4007c000080890b538f85200085201087c0ad651080301540151090b0054005002085050085200085201087c0aa938fa5200085201087c0ad651080301540151090b005464
:4008000000500008500a085200085201085f0801500008510808906138f85200085201087c0ad651080301540151090b0054005001085a08060813510908510808914838db
:40084000fb8ee438dc208fff085109085108084365015f08005509000608500e09015109105808282060804165fe5101040062da7f185308185309187e104f38085603007e
:40088000560200560101560000801a52f70852f8085200085201087c0a1138fc510554015104540052000852010852fb0852fc087c09da18530818530938fe510813f85190
:4008c000091bf7dfc780ab52000852010852fb0852fc087c09da18530818530938fe510854055109540452000852010852fb0852fc087c09da38fe1854fc1854fb52f708b7
:4009000052f8085200085201087c09da18540118540038fe3d0200b0203d0300b01b5000130552043180530550801a05c00b3d0000b03f3d0100b03a52fa530852f9530905
:400940005108010154fa5109090054f95205110a520431801980d0095607305606008007560757560600520503073f0877030f02003d0000bf523d0100bf4d52fa530850f1
:40098000003f0838f8207f104f500008501008500008502008500008500d087c0a7b38fa52fb0852fc087c0ad651090851080852fb0852fc08500008500d087c0a5138f809
:4009c000551e001050000852fa207c0595500008500d5c187c046020207f104f7c09e1207f50005304530555031066fc6cfb6b046b0551041bfa51051bf9c009530552fa1e
:400a00001c0477fc7a03bfe3510454fa510554f97f104f52f960e952fc60e85deb530452fa60e95deb53055dea48fc80a00303fa6cfad00303fc040452fb60e85deb040412
:400a4000207f62d000104f52fb60d552f960d48003104f52fc5308530752fb530952fa53063df800a0097bf83e063f078ff4207f62d000104f52fb60d58003104f52fc537f
:400a800008530752fb530952fa80083f077bf81ff7003df800bff53df700bff0207f62d000104f52fb60d58003104f52fc5308530752fb53091052f959fa28203f07390007
:400ac000a00877fa0ff9008fed207f62d000104f52fb60d48003104f55080055090052fc53073e073900a00876080e09008ff4207f303030303030303030303030303030b6
:400b000030303030303030303030303030303030303030303030303030303030303030303030303030303030303030303030303030303030303030303030303030303030b5
:400b40003030303030303030303030303030303030303030303030303030303030303030303030303030303030303030303030303030303030303030303030303030303075
:400b80003030303030303030303030303030303030303030303030303030303030303030303030303030303030303030303030303030303030303030303030303030303035
:400bc00030303030303030303030303030303030303030303030303030303030303030303030303030303030303030303030303030303030303030303030303030303030f5
:020000040010ea
:020000040020da
:020000008dea87
:00000001ff
